{"abi":[{"type":"constructor","inputs":[{"name":"_premiumPrice","type":"uint256","internalType":"uint256"}],"stateMutability":"nonpayable"},{"type":"function","name":"addBook","inputs":[{"name":"_title","type":"string","internalType":"string"},{"name":"_content","type":"string","internalType":"string"},{"name":"_isPremium","type":"bool","internalType":"bool"}],"outputs":[],"stateMutability":"nonpayable"},{"type":"function","name":"bookCount","inputs":[],"outputs":[{"name":"","type":"uint256","internalType":"uint256"}],"stateMutability":"view"},{"type":"function","name":"books","inputs":[{"name":"","type":"uint256","internalType":"uint256"}],"outputs":[{"name":"id","type":"uint256","internalType":"uint256"},{"name":"title","type":"string","internalType":"string"},{"name":"content","type":"string","internalType":"string"},{"name":"isPremium","type":"bool","internalType":"bool"}],"stateMutability":"view"},{"type":"function","name":"getBook","inputs":[{"name":"_id","type":"uint256","internalType":"uint256"}],"outputs":[{"name":"title","type":"string","internalType":"string"},{"name":"content","type":"string","internalType":"string"}],"stateMutability":"view"},{"type":"function","name":"owner","inputs":[],"outputs":[{"name":"","type":"address","internalType":"address"}],"stateMutability":"view"},{"type":"function","name":"premiumMembers","inputs":[{"name":"","type":"address","internalType":"address"}],"outputs":[{"name":"","type":"bool","internalType":"bool"}],"stateMutability":"view"},{"type":"function","name":"premiumPrice","inputs":[],"outputs":[{"name":"","type":"uint256","internalType":"uint256"}],"stateMutability":"view"},{"type":"function","name":"purchasePremium","inputs":[],"outputs":[],"stateMutability":"payable"},{"type":"function","name":"withdraw","inputs":[],"outputs":[],"stateMutability":"nonpayable"},{"type":"event","name":"BookAdded","inputs":[{"name":"id","type":"uint256","indexed":false,"internalType":"uint256"},{"name":"title","type":"string","indexed":false,"internalType":"string"},{"name":"isPremium","type":"bool","indexed":false,"internalType":"bool"}],"anonymous":false},{"type":"event","name":"PremiumPurchased","inputs":[{"name":"user","type":"address","indexed":true,"internalType":"address"}],"anonymous":false}],"bytecode":{"object":"0x6080604052348015600f57600080fd5b50604051610c17380380610c17833981016040819052602c916045565b600080546001600160a01b03191633179055600155605d565b600060208284031215605657600080fd5b5051919050565b610bab8061006c6000396000f3fe6080604052600436106100865760003560e01c8063776a98fe11610059578063776a98fe1461013b57806381ef77d31461015b5780638da5cb5b14610163578063b905ad781461019b578063e0ff5b8b146101b157600080fd5b806330654e131461008b5780633ccfd60b146100b45780634d2e91d0146100cb578063687440461461010b575b600080fd5b34801561009757600080fd5b506100a160015481565b6040519081526020015b60405180910390f35b3480156100c057600080fd5b506100c96101df565b005b3480156100d757600080fd5b506100fb6100e6366004610776565b60026020526000908152604090205460ff1681565b60405190151581526020016100ab565b34801561011757600080fd5b5061012b6101263660046107a6565b61024f565b6040516100ab9493929190610805565b34801561014757600080fd5b506100c96101563660046108e9565b61038b565b6100c9610488565b34801561016f57600080fd5b50600054610183906001600160a01b031681565b6040516001600160a01b0390911681526020016100ab565b3480156101a757600080fd5b506100a160045481565b3480156101bd57600080fd5b506101d16101cc3660046107a6565b610536565b6040516100ab92919061096b565b6000546001600160a01b031633146102125760405162461bcd60e51b815260040161020990610999565b60405180910390fd5b600080546040516001600160a01b03909116914780156108fc02929091818181858888f1935050505015801561024c573d6000803e3d6000fd5b50565b60036020526000908152604090208054600182018054919291610271906109db565b80601f016020809104026020016040519081016040528092919081815260200182805461029d906109db565b80156102ea5780601f106102bf576101008083540402835291602001916102ea565b820191906000526020600020905b8154815290600101906020018083116102cd57829003601f168201915b5050505050908060020180546102ff906109db565b80601f016020809104026020016040519081016040528092919081815260200182805461032b906109db565b80156103785780601f1061034d57610100808354040283529160200191610378565b820191906000526020600020905b81548152906001019060200180831161035b57829003601f168201915b5050506003909301549192505060ff1684565b6000546001600160a01b031633146103b55760405162461bcd60e51b815260040161020990610999565b600480549060006103c583610a15565b909155505060408051608081018252600454808252602080830187815283850187905285151560608501526000928352600390915292902081518155915190919060018201906104159082610a8b565b506040820151600282019061042a9082610a8b565b50606091909101516003909101805460ff19169115159190911790556004546040517f9814286f8c3b345913a711c95dcee21fe9470751e8789fb0016f43884bc614179161047b9186908590610b4a565b60405180910390a1505050565b6001543410156104f45760405162461bcd60e51b815260206004820152603160248201527f496e73756666696369656e742066756e647320746f2070757263686173652070604482015270072656d69756d206d656d6265727368697607c1b6064820152608401610209565b33600081815260026020526040808220805460ff19166001179055517f8635c858710dee3b9bb5e5bc7fcc805c455795162aa5b74dd4a508961a3603239190a2565b60608060006003600085815260200190815260200160002060405180608001604052908160008201548152602001600182018054610573906109db565b80601f016020809104026020016040519081016040528092919081815260200182805461059f906109db565b80156105ec5780601f106105c1576101008083540402835291602001916105ec565b820191906000526020600020905b8154815290600101906020018083116105cf57829003601f168201915b50505050508152602001600282018054610605906109db565b80601f0160208091040260200160405190810160405280929190818152602001828054610631906109db565b801561067e5780601f106106535761010080835404028352916020019161067e565b820191906000526020600020905b81548152906001019060200180831161066157829003601f168201915b50505091835250506003919091015460ff16151560209091015280519091506000036106e25760405162461bcd60e51b8152602060048201526013602482015272109bdbdac8191bd95cc81b9bdd08195e1a5cdd606a1b6044820152606401610209565b806060015115610762573360009081526002602052604090205460ff166107625760405162461bcd60e51b815260206004820152602e60248201527f5468697320626f6f6b206973206f6e6c7920617661696c61626c6520746f207060448201526d72656d69756d206d656d6265727360901b6064820152608401610209565b806020015181604001519250925050915091565b60006020828403121561078857600080fd5b81356001600160a01b038116811461079f57600080fd5b9392505050565b6000602082840312156107b857600080fd5b5035919050565b6000815180845260005b818110156107e5576020818501810151868301820152016107c9565b506000602082860101526020601f19601f83011685010191505092915050565b84815260806020820152600061081e60808301866107bf565b828103604084015261083081866107bf565b915050821515606083015295945050505050565b634e487b7160e01b600052604160045260246000fd5b600082601f83011261086b57600080fd5b813567ffffffffffffffff81111561088557610885610844565b604051601f8201601f19908116603f0116810167ffffffffffffffff811182821017156108b4576108b4610844565b6040528181528382016020018510156108cc57600080fd5b816020850160208301376000918101602001919091529392505050565b6000806000606084860312156108fe57600080fd5b833567ffffffffffffffff81111561091557600080fd5b6109218682870161085a565b935050602084013567ffffffffffffffff81111561093e57600080fd5b61094a8682870161085a565b9250506040840135801515811461096057600080fd5b809150509250925092565b60408152600061097e60408301856107bf565b828103602084015261099081856107bf565b95945050505050565b60208082526022908201527f4f6e6c79206f776e65722063616e20706572666f726d2074686973206163746960408201526137b760f11b606082015260800190565b600181811c908216806109ef57607f821691505b602082108103610a0f57634e487b7160e01b600052602260045260246000fd5b50919050565b600060018201610a3557634e487b7160e01b600052601160045260246000fd5b5060010190565b601f821115610a8657806000526020600020601f840160051c81016020851015610a635750805b601f840160051c820191505b81811015610a835760008155600101610a6f565b50505b505050565b815167ffffffffffffffff811115610aa557610aa5610844565b610ab981610ab384546109db565b84610a3c565b6020601f821160018114610aed5760008315610ad55750848201515b600019600385901b1c1916600184901b178455610a83565b600084815260208120601f198516915b82811015610b1d5787850151825560209485019460019092019101610afd565b5084821015610b3b5786840151600019600387901b60f8161c191681555b50505050600190811b01905550565b838152606060208201526000610b6360608301856107bf565b9050821515604083015294935050505056fea2646970667358221220c03f1ab31d7c1397bda0bcef01c0812277e66659e046b2846cb34f3725478bfa64736f6c634300081a0033","linkReferences":{}},"methodIdentifiers":{"addBook(string,string,bool)":"776a98fe","bookCount()":"b905ad78","books(uint256)":"68744046","getBook(uint256)":"e0ff5b8b","owner()":"8da5cb5b","premiumMembers(address)":"4d2e91d0","premiumPrice()":"30654e13","purchasePremium()":"81ef77d3","withdraw()":"3ccfd60b"},"id":23}