{"abi":[{"type":"constructor","inputs":[{"name":"_premiumPrice","type":"uint256","internalType":"uint256"}],"stateMutability":"nonpayable"},{"type":"function","name":"addBook","inputs":[{"name":"_title","type":"string","internalType":"string"},{"name":"_isPremium","type":"bool","internalType":"bool"}],"outputs":[],"stateMutability":"nonpayable"},{"type":"function","name":"bookCount","inputs":[],"outputs":[{"name":"","type":"uint256","internalType":"uint256"}],"stateMutability":"view"},{"type":"function","name":"books","inputs":[{"name":"","type":"uint256","internalType":"uint256"}],"outputs":[{"name":"id","type":"uint256","internalType":"uint256"},{"name":"title","type":"string","internalType":"string"},{"name":"isPremium","type":"bool","internalType":"bool"}],"stateMutability":"view"},{"type":"function","name":"getBook","inputs":[{"name":"_id","type":"uint256","internalType":"uint256"}],"outputs":[{"name":"title","type":"string","internalType":"string"}],"stateMutability":"view"},{"type":"function","name":"owner","inputs":[],"outputs":[{"name":"","type":"address","internalType":"address"}],"stateMutability":"view"},{"type":"function","name":"premiumMembers","inputs":[{"name":"","type":"address","internalType":"address"}],"outputs":[{"name":"","type":"bool","internalType":"bool"}],"stateMutability":"view"},{"type":"function","name":"premiumPrice","inputs":[],"outputs":[{"name":"","type":"uint256","internalType":"uint256"}],"stateMutability":"view"},{"type":"function","name":"purchasePremium","inputs":[],"outputs":[],"stateMutability":"payable"},{"type":"event","name":"BookAdded","inputs":[{"name":"id","type":"uint256","indexed":false,"internalType":"uint256"},{"name":"title","type":"string","indexed":false,"internalType":"string"},{"name":"isPremium","type":"bool","indexed":false,"internalType":"bool"}],"anonymous":false},{"type":"event","name":"PremiumPurchased","inputs":[{"name":"user","type":"address","indexed":true,"internalType":"address"}],"anonymous":false}],"bytecode":{"object":"0x6080604052348015600f57600080fd5b5060405161099f38038061099f833981016040819052602c916045565b600080546001600160a01b03191633179055600155605d565b600060208284031215605657600080fd5b5051919050565b6109338061006c6000396000f3fe60806040526004361061007b5760003560e01c806381ef77d31161004e57806381ef77d31461013a5780638da5cb5b14610142578063b905ad781461017a578063e0ff5b8b1461019057600080fd5b8063187934861461008057806330654e13146100a25780634d2e91d0146100cb578063687440461461010b575b600080fd5b34801561008c57600080fd5b506100a061009b3660046105f7565b6101bd565b005b3480156100ae57600080fd5b506100b860015481565b6040519081526020015b60405180910390f35b3480156100d757600080fd5b506100fb6100e63660046106c1565b60026020526000908152604090205460ff1681565b60405190151581526020016100c2565b34801561011757600080fd5b5061012b6101263660046106f1565b6102dc565b6040516100c293929190610750565b6100a061038a565b34801561014e57600080fd5b50600054610162906001600160a01b031681565b6040516001600160a01b0390911681526020016100c2565b34801561018657600080fd5b506100b860045481565b34801561019c57600080fd5b506101b06101ab3660046106f1565b610429565b6040516100c2919061077b565b6000546001600160a01b031633146102275760405162461bcd60e51b815260206004820152602260248201527f4f6e6c79206f776e65722063616e20706572666f726d2074686973206163746960448201526137b760f11b60648201526084015b60405180910390fd5b600480549060006102378361078e565b909155505060408051606081018252600454808252602080830186815285151584860152600092835260039091529290208151815591519091906001820190610280908261083e565b50604091820151600291909101805460ff191691151591909117905560045490517f9814286f8c3b345913a711c95dcee21fe9470751e8789fb0016f43884bc61417916102d09185908590610750565b60405180910390a15050565b600360205260009081526040902080546001820180549192916102fe906107b5565b80601f016020809104026020016040519081016040528092919081815260200182805461032a906107b5565b80156103775780601f1061034c57610100808354040283529160200191610377565b820191906000526020600020905b81548152906001019060200180831161035a57829003601f168201915b5050506002909301549192505060ff1683565b6001543410156103e75760405162461bcd60e51b815260206004820152602260248201527f506c65617365207075726368617365207072656d69756d206d656d6265727368604482015261069760f41b606482015260840161021e565b33600081815260026020526040808220805460ff19166001179055517f8635c858710dee3b9bb5e5bc7fcc805c455795162aa5b74dd4a508961a3603239190a2565b606060006003600084815260200190815260200160002060405180606001604052908160008201548152602001600182018054610465906107b5565b80601f0160208091040260200160405190810160405280929190818152602001828054610491906107b5565b80156104de5780601f106104b3576101008083540402835291602001916104de565b820191906000526020600020905b8154815290600101906020018083116104c157829003601f168201915b50505091835250506002919091015460ff16151560209091015280519091506000036105425760405162461bcd60e51b8152602060048201526013602482015272109bdbdac8191bd95cc81b9bdd08195e1a5cdd606a1b604482015260640161021e565b8060400151156105c2573360009081526002602052604090205460ff166105c25760405162461bcd60e51b815260206004820152602e60248201527f5468697320626f6f6b206973206f6e6c7920617661696c61626c6520746f207060448201526d72656d69756d206d656d6265727360901b606482015260840161021e565b6020015192915050565b634e487b7160e01b600052604160045260246000fd5b803580151581146105f257600080fd5b919050565b6000806040838503121561060a57600080fd5b823567ffffffffffffffff81111561062157600080fd5b8301601f8101851361063257600080fd5b803567ffffffffffffffff81111561064c5761064c6105cc565b604051601f8201601f19908116603f0116810167ffffffffffffffff8111828210171561067b5761067b6105cc565b60405281815282820160200187101561069357600080fd5b816020840160208301376000602083830101528094505050506106b8602084016105e2565b90509250929050565b6000602082840312156106d357600080fd5b81356001600160a01b03811681146106ea57600080fd5b9392505050565b60006020828403121561070357600080fd5b5035919050565b6000815180845260005b8181101561073057602081850181015186830182015201610714565b506000602082860101526020601f19601f83011685010191505092915050565b838152606060208201526000610769606083018561070a565b90508215156040830152949350505050565b6020815260006106ea602083018461070a565b6000600182016107ae57634e487b7160e01b600052601160045260246000fd5b5060010190565b600181811c908216806107c957607f821691505b6020821081036107e957634e487b7160e01b600052602260045260246000fd5b50919050565b601f82111561083957806000526020600020601f840160051c810160208510156108165750805b601f840160051c820191505b818110156108365760008155600101610822565b50505b505050565b815167ffffffffffffffff811115610858576108586105cc565b61086c8161086684546107b5565b846107ef565b6020601f8211600181146108a057600083156108885750848201515b600019600385901b1c1916600184901b178455610836565b600084815260208120601f198516915b828110156108d057878501518255602094850194600190920191016108b0565b50848210156108ee5786840151600019600387901b60f8161c191681555b50505050600190811b0190555056fea26469706673582212201571cc4cf12fe4e2b20f73552b859aa73f039e9c049bb73328b43c8abe34aee364736f6c634300081a0033","linkReferences":{}},"methodIdentifiers":{"addBook(string,bool)":"18793486","bookCount()":"b905ad78","books(uint256)":"68744046","getBook(uint256)":"e0ff5b8b","owner()":"8da5cb5b","premiumMembers(address)":"4d2e91d0","premiumPrice()":"30654e13","purchasePremium()":"81ef77d3"},"id":20}